:060000000A128A110C280F
:10000800FE00030EF1000A08F2000A128A115028B5
:100018000A128A110F28F30183010A128A1176281D
:10002800831603178801890120308316031385007E
:100038000330860018308700831203138712831653
:100048000313880183120313850186018701831630
:1000580003130F088F3940388F000F148B170B17B5
:100068008B150B10161496148113151495148312FE
:1000780003131408F03904389400141294168316E4
:10008800031314179413831203138C118316031389
:100098008C158B170B1708000B1C5328542866283F
:1000A80083120313061859285A285F280130F000D4
:1000B8007008F307652886186228632865280130C8
:1000C800F3020B10831203138C1D6B286C286F2806
:1000D800730893008C1172088A00710E8300FE0E5B
:1000E8007E0E09000A128A1114200A128A117B282E
:0600F8000A128A110C2817
:08400000FF3FFF3FFF3FFF3FC0
:04400E00D420FF3F7C
:00000001FF
